:100000000C946F000C9481000C9481000C9481007E
:100010000C9481000C9481000C9481000C9481005C
:100020000C9481000C9481000C9481000C9481004C
:100030000C9481000C9481000C9481000C9481003C
:100040000C9438010C9481000C9481000C94810074
:100050000C9481000C9481000C9481000C9481001C
:100060000C9481000C9481000C9400000C9400000E
:100070000C9400000C9400000000000024002700F5
:100080002A002D0000000000250028002B002E0073
:10009000040404040404040402020202020203032E
:1000A000030303030505050505050503010204080F
:1000B00010204080010204081020010204081020D2
:1000C0000208010410402040000000085002010016
:1000D00000030407000000000000000000001124DD
:1000E0001FBECFEFD8E0DEBFCDBF21E0A0E0B1E082
:1000F00001C01D92A930B207E1F70E947E010C9465
:1001000027020C940000E5EDF0E02491E9EBF0E02B
:100110003491EDE9F0E09491992361F12223C9F043
:1001200021502B30B0F4E22FF0E0E756FF4F0C9453
:100130002102BF00C300A400BB00A900A900C600A3
:10014000CC00D000D600DA00209180002F772093D9
:100150008000E92FF0E0EE0FFF1FEC57FF4FA59155
:10016000B4919FB7F894EC91811128C030953E234B
:100170003C939FBF0895209180002F7DE8CF24B548
:100180002F7724BDE6CF24B52F7DFBCF2091B00083
:100190002F772093B000DDCF2091B0002F7DF9CFD5
:1001A000209190002F7720939000D3CF2091900042
:1001B0002F7DF9CF20919000277FF5CF3E2BD8CF10
:1001C0003FB7F8948091050190910601A091070135
:1001D000B091080126B5A89B05C02F3F19F00196E4
:1001E000A11DB11D3FBFBA2FA92F982F8827BC0191
:1001F000CD01620F711D811D911D660F771F881F34
:10020000991F08958F929F92AF92BF92CF92DF92E3
:10021000EF92FF920E94E0004B015C0188EEC82E35
:1002200083E0D82EE12CF12C0E94E00068197909B6
:100230008A099B09683E734081059105A8F321E076
:10024000C21AD108E108F10888EE880E83E0981EF2
:10025000A11CB11CC114D104E104F10429F7FF90E1
:10026000EF90DF90CF90BF90AF909F908F900895C8
:100270001F920F920FB60F9211242F933F938F93DB
:100280009F93AF93BF938091010190910201A09140
:100290000301B09104013091000120E4230F2D37B8
:1002A00028F023EC230F0196A11DB11D209300011E
:1002B0008093010190930201A0930301B093040184
:1002C0008091050190910601A0910701B09108016C
:1002D0000196A11DB11D8093050190930601A09385
:1002E0000701B0930801BF91AF919F918F913F910A
:1002F0002F910F900FBE0F901F9018958091F200D4
:1003000080618EBB80E88093F2009EB39093F200F0
:100310008093610091E0909361009091F2009F7949
:100320009EBB8093F2009EB39093F2009091F200F6
:100330009B7F9EBB8093F2009EB39093F2008093CC
:10034000610010926100789484B5826084BD84B5A8
:10035000816084BD85B5826085BD85B5816085BDC0
:1003600080916E00816080936E0010928100809178
:100370008100826080938100809181008160809300
:100380008100809180008160809380008091B10025
:1003900084608093B1008091B00081608093B00050
:1003A00080919100826080939100809191008160A2
:1003B0008093910080919000816080939000809163
:1003C0007A00846080937A0080917A008D7F809398
:1003D0007A0080917A008E7F80937A0080917A00F3
:1003E000806880937A001092C100E9EBF0E02491DC
:1003F000EDE9F0E08491882399F090E0880F991F4F
:10040000FC01E858FF4FA591B491FC01EC57FF4F58
:10041000859194918FB7F894EC91E22BEC938FBF78
:10042000C0E0D0E081E00E9483000E94020180E0F1
:100430000E9483000E9402012097A1F30E94000005
:10044000F1CFEE0FFF1F0590F491E02D0994F89481
:02045000FFCFDC
:00000001FF
